:020000040000FA
:100000000002040000000000C8020000C802000056
:10001000C8020000C8020000C8020000C8020000B8
:10002000C8020000C8020000C8020000C8020000A8
:10003000C8020000C8020000C8020000C802000098
:10004000C8020000C8020000C8020000C802000088
:10005000C8020000C8020000C8020000C802000078
:10006000C8020000C8020000C8020000C802000068
:10007000C8020000C8020000C8020000C802000058
:10008000C8020000C8020000C8020000C802000048
:10009000C8020000C8020000C8020000C802000038
:1000A000C8020000C8020000C8020000C802000028
:1000B000C8020000C8020000C8020000C802000018
:1000C000C8020000C8020000C8020000C802000008
:1000D000C8020000C8020000C8020000C8020000F8
:1000E000C8020000C8020000C8020000C8020000E8
:1000F000C8020000C8020000C8020000C8020000D8
:10010000C8020000C8020000C8020000C8020000C7
:10011000C8020000C8020000C8020000C8020000B7
:10012000C8020000C8020000C8020000C8020000A7
:10013000C8020000C8020000C8020000C802000097
:10014000C8020000C8020000C8020000C802000087
:10015000C8020000C8020000C8020000C802000077
:10016000FFFFFF00FFFFFF00FFFFFF00FFFFFF009B
:10017000FFFFFF00FFFFFF00FFFFFF00FFFFFF008B
:10018000FFFFFF00FFFFFF00FFFFFF00FFFFFF007B
:10019000FFFFFF00FFFFFF00FFFFFF00FFFFFF006B
:1001A000FFFFFF00FFFFFF00FFFFFF00FFFFFF005B
:1001B000FFFFFF00FFFFFF00FFFFFF00FFFFFF004B
:1001C000FFFFFF00FFFFFF00FFFFFF00FFFFFF003B
:1001D000FFFFFF00FFFFFF00FFFFFF00FFFFFF002B
:1001E000FFFFFF00FFFFFF00FFFFFF00FFFFFF001B
:1001F000FFFFFF00FFFFFF00FFFFFF00FFFFFF000B
:10020000FFFFFF00FFFFFF00C8020000C802000060
:10021000C8020000C8020000C8020000C8020000B6
:10022000C8020000C8020000C8020000C8020000A6
:10023000C8020000C8020000C8020000C802000096
:10024000C8020000C8020000C8020000C802000086
:10025000C8020000C8020000C8020000C802000076
:10026000C8020000C8020000C8020000C802000066
:10027000C8020000C8020000C8020000C802000056
:10028000C8020000C8020000C8020000C802000046
:10029000C8020000C8020000C8020000C802000036
:1002A000C8020000C8020000C8020000C802000026
:1002B000C8020000C8020000C8020000C802000016
:1002C000C8020000C8020000C8020000C802000006
:1002D000C8020000C8020000C8020000C8020000F6
:1002E000C8020000C8020000C8020000C8020000E6
:1002F000C8020000C8020000C8020000C8020000D6
:10030000C8020000C8020000C8020000C8020000C5
:10031000C8020000C8020000C8020000C8020000B5
:10032000C8020000C8020000C8020000C8020000A5
:10033000C8020000C8020000C8020000C802000095
:10034000C8020000C8020000C8020000C802000085
:10035000C8020000C8020000C8020000C802000075
:10036000FFFFFF00FFFFFF00FFFFFF00FFFFFF0099
:10037000FFFFFF00FFFFFF00FFFFFF00FFFFFF0089
:10038000FFFFFF00FFFFFF00FFFFFF00FFFFFF0079
:10039000FFFFFF00FFFFFF00FFFFFF00FFFFFF0069
:1003A000FFFFFF00FFFFFF00FFFFFF00FFFFFF0059
:1003B000FFFFFF00FFFFFF00FFFFFF00FFFFFF0049
:1003C000FFFFFF00FFFFFF00FFFFFF00FFFFFF0039
:1003D000FFFFFF00FFFFFF00FFFFFF00FFFFFF0029
:1003E000FFFFFF00FFFFFF00FFFFFF00FFFFFF0019
:1003F000FFFFFF00FFFFFF00FFFFFF00FFFFFF0009
:100400000F8020000EDF20000E0188000000000099
:10041000000020000000E000020032000001200087
:1004200020028800140007005B0007000000E000C5
:1004300003003A0000002000010020000200370005
:100440000000200001002000810F70000100320038
:1004500014000700000020000000E000020032004D
:10046000000002000000000008030200000000007D
:100470000040DA000000FE004440A9000000200017
:100480000000E0000300320000002000A00188000E
:100490004440A800000006008A1F78008B1F7800E7
:1004A0000000060091018800800478000000EB0045
:1004B0001A003700E284440032A0B4009905BA0063
:1004C000E284440032A0B4009906BA00E2844400F9
:1004D00032A0B4000006EB00476FDE00FD07B2005B
:1004E000636CE10003003A00EBFF07000000EB0043
:1004F0000A003700606CE10004003A00005DEB0088
:100500008B05E900FDFF3E00040037006168E10053
:10051000010032000086EB000B00070019C7BA008B
:100520001905BA000E04E00003003A000A00E000DA
:10053000E0FF3A0000000600FE07B2009E018800BE
:100540008A047800F5FF3700395DBA008B05E900B1
:100550000C003200295DBA008B05E900080032006A
:100560000C00E00003003A00E284440032A0B40032
:10057000F5FF370019DDBA008B05E900FAFF3A00F4
:100580008904E800E184440032A0B40000000600C1
:100590000040DA000000FE00000005000A00FA003A
:1005A000400798006000B8006011B800009FBE00CE
:1005B0000297BE000A0037003E02BE002E03BE00B6
:1005C00010002000010020006011B800001F420050
:1005D000019F4A00021F4B00038F4B006E00B100C9
:1005E0004E0090006102B900612BB9003E00BE00D0
:1005F0002E01BE000020E10001A8E10002B0E100F0
:1006000003B8E100ECFF3E000080FA0000000600A5
:100610000000FA000080EB0060198800C902A90000
:10062000C042A8006BC0A800C882A8006820A8002B
:10063000C082A8006800A800CD02A80000C8200061
:10064000D6FF0700CD02A90000C82000D3FF070095
:10065000F9FF3700FFFFFF00FFFFFF00FFFFFF0074
:10066000FFFFFF00FFFFFF00FFFFFF00FFFFFF0096
:10067000FFFFFF00FFFFFF00FFFFFF00FFFFFF0086
:10068000FFFFFF00FFFFFF00FFFFFF00FFFFFF0076
:10069000FFFFFF00FFFFFF00FFFFFF00FFFFFF0066
:0200000401F009
:100000000F00000000000000030000008700000057
:100010007B0000005F000000FB000000C200000049
:04002000FF000000DD
:0200000400FFFB
:10FC0000FFFF0000FFFF0000FFFF0000FFFF0000FC
:10FC1000FFFF0000FFFF0000FFFF0000FFFF0000EC
:10FC2000FFFF0000FFFF0000FFFF0000FFFF0000DC
:10FC3000FFFF0000FFFF0000FFFF0000FFFF0000CC
:00000001FF
